{
  "contractName": "Whitelist",
  "abi": [
    {
      "inputs": [],
      "payable": false,
      "stateMutability": "nonpayable",
      "type": "constructor"
    },
    {
      "constant": false,
      "inputs": [
        {
          "internalType": "bytes32",
          "name": "value",
          "type": "bytes32"
        }
      ],
      "name": "setMerkleTreeRoot",
      "outputs": [],
      "payable": false,
      "stateMutability": "nonpayable",
      "type": "function"
    },
    {
      "constant": true,
      "inputs": [],
      "name": "getMerkleTreeRoot",
      "outputs": [
        {
          "internalType": "bytes32",
          "name": "",
          "type": "bytes32"
        }
      ],
      "payable": false,
      "stateMutability": "view",
      "type": "function"
    },
    {
      "constant": true,
      "inputs": [
        {
          "internalType": "bytes32[]",
          "name": "proof",
          "type": "bytes32[]"
        }
      ],
      "name": "verify",
      "outputs": [
        {
          "internalType": "bool",
          "name": "",
          "type": "bool"
        }
      ],
      "payable": false,
      "stateMutability": "view",
      "type": "function"
    }
  ],
  "bytecode": "0x608060405234801561001057600080fd5b50336000806101000a81548173ffffffffffffffffffffffffffffffffffffffff021916908373ffffffffffffffffffffffffffffffffffffffff160217905550610342806100606000396000f3fe608060405234801561001057600080fd5b50600436106100415760003560e01c806350dc4656146100465780639761163814610074578063c3fc43f314610144575b600080fd5b6100726004803603602081101561005c57600080fd5b8101908080359060200190929190505050610162565b005b61012a6004803603602081101561008a57600080fd5b81019080803590602001906401000000008111156100a757600080fd5b8201836020820111156100b957600080fd5b803590602001918460208302840111640100000000831117156100db57600080fd5b919080806020026020016040519081016040528093929190818152602001838360200280828437600081840152601f19601f82011690508083019250505050505050919291929050505061022e565b604051808215151515815260200191505060405180910390f35b61014c6102ec565b6040518082815260200191505060405180910390f35b6000809054906101000a900473ffffffffffffffffffffffffffffffffffffffff1673ffffffffffffffffffffffffffffffffffffffff163373ffffffffffffffffffffffffffffffffffffffff1614610224576040517f08c379a000000000000000000000000000000000000000000000000000000000815260040180806020018281038252600e8152602001807f4e6f7420617574686f72697a656400000000000000000000000000000000000081525060200191505060405180910390fd5b8060018190555050565b60008033604051602001808273ffffffffffffffffffffffffffffffffffffffff1673ffffffffffffffffffffffffffffffffffffffff16815260200191505060405160208183030381529060405280519060200120905060008090505b83518110156102de5760008482815181106102a357fe5b602002602001015190508083116102c3576102be81846102f6565b6102ce565b6102cd83826102f6565b5b925050808060010191505061028c565b506001548114915050919050565b6000600154905090565b60008260005281602052604060002090509291505056fea265627a7a723158202380e535f9d15e47c374cd3825854f21ec9ea2792db8ea326b1d04e1d6b173fb64736f6c63430005100032",
  "source": "// SPDX-License-Identifier: MIT\npragma solidity >=0.4.21 <8.10.0;\n\ncontract Whitelist {\n    address admin;\n    bytes32 merkleTreeRoot;\n\n    constructor() public {\n        admin = msg.sender;\n    }\n\n    function setMerkleTreeRoot(bytes32 value) public {\n        require(msg.sender == admin, \"Not authorized\");\n        merkleTreeRoot = value;\n    }\n\n    function getMerkleTreeRoot() public view returns (bytes32) {\n        return merkleTreeRoot;\n    }\n\n    function verify(bytes32[] memory proof) public view returns (bool) {\n        bytes32 currentHash = keccak256(abi.encode(msg.sender));\n        for (uint256 i = 0; i < proof.length; i++) {\n            bytes32 fact = proof[i];\n            currentHash = currentHash > fact\n                ? hash(currentHash, fact)\n                : hash(fact, currentHash);\n        }\n\n        return currentHash == merkleTreeRoot;\n    }\n\n    function hash(bytes32 left, bytes32 right) private pure returns (bytes32 value)\n    {\n        assembly {\n            mstore(0x00, left)\n            mstore(0x20, right)\n            value := keccak256(0x00, 0x40)\n        }\n    }\n}\n",
  "sourcePath": "/Users/Xeronith/Desktop/challenge/contracts/Whitelist.sol",
  "compiler": {
    "name": "solc",
    "version": "0.5.16+commit.9c3226ce.Emscripten.clang"
  },
  "schemaVersion": "3.4.7",
  "updatedAt": "2022-04-21T12:31:48.767Z",
  "networkType": "ethereum",
  "devdoc": {
    "methods": {}
  },
  "userdoc": {
    "methods": {}
  }
}